:020000040800F2
:1000000000000220351E0008F5060008F70600086B
:10001000F9060008FB060008FD06000800000000C5
:10002000000000000000000000000000FF060008C3
:10003000010700080000000003070008050700088A
:10004000851E0008851E0008851E0008851E000804
:10005000851E0008851E0008851E0008851E0008F4
:10006000851E0008851E0008851E0008851E0008E4
:10007000851E0008851E0008851E0008851E0008D4
:10008000851E0008851E0008851E0008000000006F
:10009000000000000000000000000000851E0008B5
:1000A000851E0008851E0008851E0008851E0008A4
:1000B000851E0008851E0008851E0008851E000894
:1000C000851E0008851E0008851E0008851E000884
:1000D000851E0008851E0008851E0008000000001F
:1000E000851E0008851E0008851E0008000000000F
:1000F000000000000000000000000000851E000855
:1001000000000000851E0008851E0008851E0008EE
:1001100000000000000000000000000000000000DF
:10012000851E0008851E0008851E0008851E000823
:10013000851E000800000000000000000000000014
:10014000000000000000000000000000851E000804
:10015000851E0008851E0008851E0008851E0008F3
:10016000851E0008851E0008000000000000000039
:10017000000000000000000000000000000000007F
:1001800000000000851E00080000000000000000C4
:08019000851E0008851E000811
:1001980010B5054C237833B9044B13B10448AFF3B9
:1001A80000800123237010BD14000020000000000F
:1001B800E01E000808B5034B1BB103490348AFF321
:1001C800008008BD0000000018000020E01E0008A4
:1001D80053B94AB9002908BF00281CBF4FF0FF31A6
:1001E8004FF0FF3000F074B9ADF1080C6DE904CEA2
:1001F80000F006F8DDF804E0DDE9022304B07047FA
:100208002DE9F047089D04468E46002B4DD18A42C1
:10021800944669D9B2FA82F252B101FA02F3C2F1F4
:10022800200120FA01F10CFA02FC41EA030E944085
:100238004FEA1C48210CBEFBF8F61FFA8CF708FBA6
:1002480016E341EA034306FB07F199420AD91CEB7E
:10025800030306F1FF3080F01F81994240F21C81B0
:10026800023E63445B1AA4B2B3FBF8F008FB1033F8
:1002780044EA034400FB07F7A7420AD91CEB04042D
:1002880000F1FF3380F00A81A74240F207816444FD
:10029800023840EA0640E41B00261DB1D440002382
:1002A800C5E900433146BDE8F0878B4209D9002DE6
:1002B80000F0EF800026C5E9000130463146BDE870
:1002C800F087B3FA83F6002E4AD18B4202D38242DA
:1002D80000F2F980841A61EB030301209E46002D89
:1002E800E0D0C5E9004EDDE702B9FFDEB2FA82F2DE
:1002F800002A40F09280A1EB0C014FEA1C471FFA3C
:100308008CFE0126200CB1FBF7F307FB131140EA22
:1003180001410EFB03F0884208D91CEB010103F1EF
:10032800FF3802D2884200F2CB804346091AA4B2B1
:10033800B1FBF7F007FB101144EA01440EFB00FE85
:10034800A64508D91CEB040400F1FF3102D2A645EA
:1003580000F2BB800846A4EB0E0440EA03409CE789
:10036800C6F12007B34022FA07FC4CEA030C20FA36
:1003780007F401FA06F31C43F9404FEA1C4900FA56
:1003880006F3B1FBF9F8200C1FFA8CFE09FB1811D3
:1003980040EA014108FB0EF0884202FA06F20BD946
:1003A8001CEB010108F1FF3A80F08880884240F296
:1003B8008580A8F102086144091AA4B2B1FBF9F0DA
:1003C80009FB101144EA014100FB0EFE8E4508D9D5
:1003D8001CEB010100F1FF346CD28E456AD902385A
:1003E800614440EA0840A0FB0294A1EB0E01A1423F
:1003F800C846A64656D353D05DB1B3EB080261EBAD
:100408000E0101FA07F722FA06F3F1401F43C5E986
:10041800007100263146BDE8F087C2F12003D840BC
:100428000CFA02FC21FA03F3914001434FEA1C47FE
:100438001FFA8CFEB3FBF7F007FB10360B0C43EAF0
:10044800064300FB0EF69E4204FA02F408D91CEBA0
:10045800030300F1FF382FD29E422DD9023863449E
:100468009B1B89B2B3FBF7F607FB163341EA03413E
:1004780006FB0EF38B4208D91CEB010106F1FF388D
:1004880016D28B4214D9023E6144C91A46EA004684
:1004980038E72E46284605E70646E3E61846F8E616
:1004A8004B45A9D2B9EB020864EB0C0E0138A3E75F
:1004B8004646EAE7204694E74046D1E7D0467BE740
:1004C800023B614432E7304609E76444023842E7B8
:1004D800704700BF72B6FEE700B595B03022002124
:1004E80008A801F0F1FC00230393049305930693F5
:1004F800079301931F4A116C41F080511164126CEB
:1005080002F080520192019A02931B4B1A6842F43E
:1005180040421A601B6803F440430293029B012384
:1005280008934FF48033099302230E934FF480020B
:100538000F920C22109260221192129304231393AB
:1005480008A800F0F7FC88B90F230393022304934B
:10055800002305934FF4805206920793032103A8C2
:1005680000F036FF20B915B05DF804FBFFF7B2FFC5
:10057800FFF7B0FF003802400070004008B501F0F6
:1005880041F9FFF7A9FF00F019F800F055F801F05C
:100598004BFA012001F0D6FA082300220121054870
:1005A80001F07EFB082300220121034801F004FC2E
:1005B800FEE700BF000000203000002030B589B001
:1005C8000024039404940594069407940094184B0B
:1005D8001A6B42F004021A631A6B02F004020092CA
:1005E800009A01941A6B42F080021A631A6B02F0A7
:1005F80080020192019A02941A6B42F001021A6376
:100608001B6B03F001030293029B0A4D2246102143
:10061800284601F06DF810230393012304930594F1
:10062800069403A9284600F083FF09B030BD00BF37
:10063800003802400000024008B50E480E4B036027
:100648004FF48273436000238360C3600361436196
:100658004FF4007282610822C261036243628362BE
:100668000A23C36200F04EF900B908BDFFF732FF54
:10067800FBE700BF380000200030014000B589B01A
:100688000023039304930593069307930268154B7D
:100698009A4202D009B05DF804FB0021019103F5EC
:1006A80084335A6C42F480525A645A6C02F4805271
:1006B8000192019A02911A6B42F001021A631B6BB4
:1006C80003F001030293029BE023039302230493A4
:1006D800032306930523079303A9034800F028FF83
:1006E800D8E700BF0030014000000240FEE7FEE707
:1006F800FEE7FEE7FEE770477047704708B501F070
:100708009BF808BD82B0002100910B4B5A6C42F453
:1007180080425A645A6C02F480420092009A019115
:100728001A6C42F080521A641B6C03F080530193D8
:10073800019B02B0704700BF003802402DE9F04726
:1007480082B00546884617461E4601F081F80A9B86
:100758001B1A03EB060901F07BF882462B4B1B683A
:10076800C3F3CB3309FB03F301932B689C6838EA86
:1007780004030CBF4FF0010C4FF0000CBC4540D0F7
:10078800B6F1FF3FF1D001F063F8A0EB0A0048454D
:100798000AD2B9F1000F07D0019A02B14A46019B6B
:1007A800013B01939146E0E72A68536823F0E00390
:1007B80053606B68B3F5827F0BD0AB6AB3F5005F0B
:1007C80014D0012385F85130002385F850300320D8
:1007D80018E0AB68B3F5004F02D0B3F5806FECD1E9
:1007E8002A68136823F040031360E6E72A68136851
:1007F80023F4005313602A68136843F4005313600A
:10080800DFE7002002B0BDE8F08700BF100000203D
:1008180010B584B00446164B1868164BA3FB00307D
:10082800400D4FF47A7303FB00F003906368B3F54F
:10083800827F0BD0039BBBB1039B013B03932368CF
:100848009B6813F0800FF5D100200EE000920B4654
:10085800002280212046FFF771FF30B1636D43F01D
:1008680020036365032000E0002004B010BD00BF32
:1008780010000020819F5E1610B582B004460B461A
:100888004168B1F5827F14D06168B1F5827F2AD1C1
:10089800A168B1F5806F19D000920022802120460E
:1008A800FFF74CFF30B3636D43F02003636503200B
:1008B80020E08168B1F5004F02D0B1F5806FE3D137
:1008C8002068016821F040010160DDE70092002204
:1008D80001212046FFF732FF60B1636D43F020032A
:1008E8006365032006E00092002201212046FFF7FD
:1008F80025FF08B902B010BD636D43F0200363659E
:100908000320F7E700285AD010B50446436A33B9E4
:100918004368B3F5827F05D00023C36102E000235A
:10092800036143610023A36294F85130002B40D047
:10093800022384F851302268136823F040031360BF
:10094800636803F48273A26802F404421343E26802
:1009580002F400621343226902F00202134362693F
:1009680002F001021343A26902F400721343E26920
:1009780002F038021343226A02F080021343A26A8B
:1009880002F40052216813430B60638B03F00403E5
:10099800626A02F01002216813434B602268D3692F
:1009A80023F40063D36100206065012384F851308B
:1009B80010BD84F850302046FFF760FEB8E70120EC
:1009C80070472DE9F04383B01D4690F85030012B55
:1009D80000F0D180044688469146012380F85030C3
:1009E80000F036FF074694F85160F6B2012E40F049
:1009F800AF80B8F1000F00F0AC80B9F1000F00F043
:100A0800A880032384F8513000236365C4F830803C
:100A1800A4F83490A4F83690A363A387E3876364AB
:100A28002364A368B3F5004F1ED023681A6812F038
:100A3800400F03D11A6842F040021A60E368B3F528
:100A4800006F1CD0636813B1B9F1010F52D1226B4A
:100A5800236812781A73236B01332363E38E9BB2E6
:100A6800013B9BB2E38645E02268136823F040030C
:100A780013602268136843F480431360D5E7636802
:100A880013B1B9F1010F16D1226B23681288DA600D
:100A9800236B02332363E38E9BB2013B9BB2E38655
:100AA80009E000F0D5FEC01BA84202D3B5F1FF3F14
:100AB80059D1002D59D0E38E9BB2002B33D0236837
:100AC8009A6812F0020FECD0226B1288DA60236B5E
:100AD80002332363E38E9BB2013B9BB2E386EAE7D2
:100AE80000F0B6FEC01BA84202D3B5F1FF3F3ED1CD
:100AF800002D3ED0E38E9BB2ABB123689A6812F00A
:100B0800020FEDD0226B12781A73236B0133236323
:100B1800B4F836C01FFA8CFC0CF1FF3C1FFA8CFCB1
:100B2800A4F836C0E6E73A4629462046FFF770FEA5
:100B380008B120236365A36833B901932368DA6891
:100B480001929B680193019B636D13B9002600E035
:100B58000226012384F85130002384F850303046AF
:100B680003B0BDE8F0830326F3E70326F1E7032685
:100B7800EFE70326EDE70226F1E72DE9F04383B01E
:100B88001F460A9D90F85030012B00F01081044652
:100B980088469146012380F8503000F059FE0646F9
:100BA80094F85130DBB26268012B0AD0B2F5827F2B
:100BB80040F0E380A268002A40F0E980042B40F06E
:100BC800E880B8F1000F00F0E680B9F1000F00F0FE
:100BD800E480002F00F0E38094F85130DBB2042B5E
:100BE80002D0052384F8513000236365C4F8389097
:100BF800E787A787C4F83080E786A78623646364FD
:100C080023681A6812F0400F03D11A6842F04002B4
:100C18001A60E368B3F5006F11D063680BB1012F58
:100C28000BD1226B236812781A73236B0133236369
:100C3800E38E9BB2013B9BB2E38601276BE06368BE
:100C48000BB1012F0BD1226B23681288DA60236B5A
:100C580002332363E38E9BB2013B9BB2E3860127F9
:100C68001CE023689A6812F0010F0ED0E28F92B24E
:100C78005AB1DA68A36B1A80A36B0233A363E38FBC
:100C88009BB2013B9BB2E387012700F0E1FD801B8B
:100C9800A84203D3B5F1FF3F40F08380E38E9BB2B7
:100CA8001BB9E38F9BB2002B53D023689A6812F0CC
:100CB800020FD6D0E28E92B2002AD2D0002FD0D026
:100CC800226B1288DA60236B02332363E38E9BB2B4
:100CD800013B9BB2E3860027C3E723689A6812F0BA
:100CE800010F0ED0E28F92B25AB1DA68A36B1A7074
:100CF800A36B0133A363E38F9BB2013B9BB2E387F2
:100D0800012700F0A5FD831BAB4202D3B5F1FF3FDD
:100D180049D1002D49D0E38E9BB213B9E38F9BB222
:100D2800BBB123689A6812F0020FD6D0E28E92B255
:100D3800002AD2D0002FD0D0226B12781A73236BDE
:100D480001332363E38E9BB2013B9BB2E38600270A
:100D5800C3E7324629462046FFF75AFD48B9A3683B
:100D680063B901932368DA6801929B680193019B38
:100D780004E020236365012000E00220012384F8B9
:100D88005130002384F8503003B0BDE8F0830220CE
:100D9800F4E70220F2E70120F0E70120EEE7012066
:100DA800ECE70320EAE70320E8E70320E6E7022070
:100DB800EAE72DE9F04383B00446884691461D468C
:100DC8004068B0F5827F38D094F85030012B00F09D
:100DD800AE80012384F8503000F03AFD074694F8BD
:100DE8005160F6B2012E40F08F80B8F1000F00F08C
:100DF8008C80B9F1000F00F08880042384F851300A
:100E080000236365C4F83880A4F83C90A4F83E90A9
:100E18002363A386E38623646364A368B3F5004F62
:100E280019D023681A6812F0400F03D11A6842F0EB
:100E380040021A60E3681BB341E0A368002BC3D1EA
:100E4800042384F85130009513460A462046FFF7DC
:100E580094FE06465FE02268136823F0400313609F
:100E68002268136823F480431360DAE700F0F0FC8B
:100E7800C01BA84202D3B5F1FF3F50D1002D50D07E
:100E8800E38F9BB2002B33D023689A6812F0010FCE
:100E9800ECD0A26B1B7B1370A36B0133A363E38FAE
:100EA8009BB2013B9BB2E387EAE700F0D1FCC01B91
:100EB800A84202D3B5F1FF3F35D1002D35D0E38FDD
:100EC8009BB2ABB123689A6812F0010FEDD0DA68D3
:100ED800A36B1A80A36B0233A363B4F83EC01FFA56
:100EE8008CFC0CF1FF3C1FFA8CFCA4F83EC0E6E732
:100EF8003A4629462046FFF7BFFC08B12023636520
:100F0800636D13B9002600E00226012384F85130EE
:100F1800002384F85030304603B0BDE8F083032640
:100F2800F3E70326F1E70326EFE70326EDE70226BA
:100F3800F1E70000002800F0E08170B582B00446B7
:100F4800036813F0010F3BD09F4B9B6803F00C0321
:100F5800042B2CD09C4B9B6803F00C03082B21D04E
:100F68006368B3F5803F4FD0B3F5A02F52D0964BAE
:100F78001A6822F480321A601A6822F480221A60F1
:100F88006368002B50D000F063FC05468E4B1B684D
:100F980013F4003F14D100F05BFC401B6428F5D922
:100FA8000320B1E1884B5B6813F4800FD8D0864BDF
:100FB8001B6813F4003F03D06368002B00F09F8187
:100FC800236813F0020F54D07F4B9B6813F00C0F6B
:100FD8003ED07D4B9B6803F00C03082B33D0E368AD
:100FE800002B68D0794B01221A6000F031FC0546CD
:100FF800754B1B6813F0020F54D100F029FC401BFD
:101008000228F5D903207FE16F4A136843F480333F
:101018001360B5E76C4B1A6842F480221A601A68AC
:1010280042F480321A60ABE700F012FC0546664BCA
:101038001B6813F4003FC3D000F00AFC401B64286F
:10104800F5D9032060E1604B5B6813F4800FC6D1CB
:101058005D4B1B6813F0020F03D0E368012B40F0CF
:101068005081594A136823F0F803216943EAC10300
:101078001360236813F0080F42D063696BB3534BB6
:101088000122C3F8802E00F0E3FB05464E4B5B6F50
:1010980013F0020F34D100F0DBFB401B0228F5D916
:1010A800032031E1484A136823F0F803216943EA31
:1010B800C1031360DDE7454B00221A6000F0C8FB4E
:1010C8000546414B1B6813F0020FD2D000F0C0FB5D
:1010D800401B0228F5D9032016E13C4B0022C3F837
:1010E800802E00F0B5FB0546374B5B6F13F0020FFF
:1010F80006D000F0ADFB401B0228F5D9032003E120
:10110800236813F0040F77D02F4B1B6C13F0805F0C
:1011180033D1002301932C4B1A6C42F080521A648D
:101128001B6C03F080530193019B0125284B1B681E
:1011380013F4807F23D0A368012B34D0052B38D03B
:10114800214B1A6F22F001021A671A6F22F004026B
:101158001A67A368002B3DD000F07AFB06461A4BAD
:101168001B6F13F0020F46D100F072FB801B41F297
:1011780088339842F3D90320C6E00025D6E7144AFD
:10118800136843F48073136000F062FB0646104B4B
:101198001B6813F4807FCED100F05AFB801B022815
:1011A800F5D90320B0E0084A136F43F00103136731
:1011B800CFE7054B1A6F42F004021A671A6F42F024
:1011C80001021A67C5E700BF003802400000474225
:1011D8000070004000F03CFB0646524B1B6F13F0BA
:1011E800020F08D000F034FB801B41F2883398428C
:1011F800F3D9032088E0EDB9A369002B00F08380C0
:10120800484A926802F00C02082A51D0022B17D0E3
:10121800454B00221A6600F01BFB0446414B1B6835
:1012280013F0007F42D000F013FB001B0228F5D911
:10123800032069E03B4A136C23F080531364DBE717
:10124800394B00221A6600F003FB0546354B1B6834
:1012580013F0007F06D000F0FBFA401B0228F5D9F6
:10126800032051E0E369226A1343626A43EA821366
:10127800A26A5208013A43EA0243E26A43EA026375
:10128800284A5360284B01221A6600F0E1FA044606
:10129800244B1B6813F0007F06D100F0D9FA001B1D
:1012A8000228F5D903202FE000202DE000202BE0B4
:1012B800012B2BD01B4B5B6803F48001E269914240
:1012C80026D103F03F02216A8A4223D1616A47F698
:1012D800C0721A40B2EB811F1ED103F44031A26ADA
:1012E8005208013AB1EB024F18D103F07063E26A79
:1012F800B3EB026F14D1002006E0012070470120F3
:1013080002E0012000E0002002B070BD0120FBE7F0
:101318000120F9E70120F7E70120F5E70120F3E7CD
:101328000120F1E7003802400000474208B5254B8C
:101338009B6803F00C03042B3FD0082B3FD1214BB3
:101348005A6802F03F025B6813F4800F12D01D4BFD
:101358005968C1F388111C480023A1FB0001FEF75E
:1013680037FF184B5B68C3F3014301335B00B0FBE5
:10137800F3F025E0134B5968C1F3881C4FEA4C1170
:10138800B1EB0C006EEB0E0E4FEA8E1343EA90633E
:101398008101091A63EB0E03DB0043EA5173C900AC
:1013A80011EB0C0C43F10003990200234FEA8C2047
:1013B80041EA9C51FEF70CFFD3E7034800E00348DD
:1013C80008BD00BF0038024040787D010024F400C9
:1013D800002800F09B8070B50D4604464F4B1B68F3
:1013E80003F007038B4208D2CBB24C4A1370136840
:1013F80003F007038B4240F08B80236813F0020F41
:1014080017D013F0040F04D0454A936843F4E0530F
:101418009360236813F0080F04D0414A936843F49B
:10142800604393603E4A936823F0F003A1680B433E
:101438009360236813F0010F32D06368012B21D029
:101448009A1E012A25D9364A126812F0020F61D075
:1014580033498A6822F0030213438B6000F0F8F9DD
:1014680006462F4B9B6803F00C036268B3EB820FB0
:1014780016D000F0EDF9801B41F288339842F0D97C
:10148800032042E0264A126812F4003FE0D101200E
:101498003BE0234A126812F0007FD9D1012034E0E2
:1014A8001E4B1B6803F00703AB4207D9EAB21B4B7C
:1014B8001A701B6803F00703AB422DD1236813F0A1
:1014C800040F06D0164A936823F4E053E1680B43EF
:1014D8009360236813F0080F07D0114A936823F428
:1014E8006043216943EAC1039360FFF71FFF0C4B78
:1014F8009B68C3F303130B4AD35CD8400A4B1860AC
:101508000A4B186800F058F9002070BD0120704798
:101518000120FAE70120F8E70120F6E7003C024045
:1015280000380240F81E0008100000200C000020BF
:1015380000230F2B00F2D28070B582B060E085687E
:101548005E000324B44025EA0405CC68B4402C436B
:101558008460456825EA02054C68C4F300129A4085
:101568002A4342605AE0DC08083450F8246003F04B
:10157800070295000F22AA4026EA020E0A69AA402D
:1015880042EA0E0240F824205CE0042200E0002237
:1015980002FA0EF22A430234514D45F82420514AEA
:1015A80014686FEA0C0224EA0C054E6816F4803FB2
:1015B80001D04CEA04054B4C2560646802EA040536
:1015C8004E6816F4003F01D04CEA0405454C6560AE
:1015D800A46802EA04054E6816F4801F01D04CEA9C
:1015E8000405404CA560E46822404D6815F4001FCE
:1015F80001D04CEA04023B4CE26001330F2B6BD85C
:1016080001229A400C6804EA020C32EA0404F4D17C
:101618004C6804F00304013C012C90D94A6802F09C
:101628000302032A09D0C4685D000322AA4024EA01
:1016380002048A68AA402243C2604A6802F0030290
:10164800022A90D004684FEA430E032202FA0EF2EF
:1016580024EA02044A6802F0030202FA0EF2224364
:1016680002604A6812F4403FC7D0002201921E4A25
:10167800546C44F480445464526C02F480420192E5
:10168800019A9C08A51C164A52F8255003F003023B
:101698004FEA820E0F2202FA0EF225EA0205134AD9
:1016A80090423FF474AF02F5806290420ED002F58A
:1016B800806290420CD002F5806290420AD002F516
:1016C800806290423FF461AF072261E701225FE741
:1016D80002225DE703225BE702B070BD704700BFDE
:1016E80000380140003C0140003802400000024040
:1016F8000AB181617047090481617047074AD3685C
:1017080023F4E0631B041B0C000200F4E0600343B5
:1017180043F0BF6343F40033D360704700ED00E04B
:1017280000B5194BDB68C3F30223C3F1070CBCF106
:10173800040F28BF4FF0040C03F1040EBEF1060F8E
:1017480018D9033B4FF0FF3E0EFA0CFC21EA0C01BE
:1017580099400EFA03F322EA0303194300280BDB2E
:101768000901C9B200F1604000F5614080F800133A
:101778005DF804FB0023E5E700F00F000901C9B29A
:10178800024B1954F4E700BF00ED00E014ED00E04F
:101798000138B0F1807F0BD24FF0E0235861054A41
:1017A800F02182F823100020986107221A617047FF
:1017B8000120704700ED00E010B504460E4B187884
:1017C8004FF47A73B3FBF0F30C4A1068B0FBF3F0F4
:1017D800FFF7DEFF68B90F2C01D901200AE00022CB
:1017E80021464FF0FF30FFF79BFF054B1C600020A0
:1017F80000E0012010BD00BF0800002010000020FC
:101808000C00002008B50B4B1A6842F400721A60ED
:101818001A6842F480621A601A6842F480721A6088
:101828000320FFF76BFF0F20FFF7C6FFFEF76AFFE5
:10183800002008BD003C0240034A1168034B1B7896
:101848000B441360704700BF900000200800002080
:10185800014B1868704700BF9000002038B5044657
:10186800FFF7F6FF0546B4F1FF3F02D0044B1B78A3
:101878001C44FFF7EDFF401BA042FAD338BD00BF60
:101888000800002000B587B08DF80F00642300938E
:1018980001230DF117020DF10F010448FFF76DF94F
:1018A8009DF8170007B05DF804FB00BF3800002062
:1018B800F8B5104F002210213846FFF719FF9F2076
:1018C800FFF7E0FFA520FFF7DDFF0646A520FFF79D
:1018D800D9FF0446A520FFF7D5FF054601221021B0
:1018E8003846FFF705FF240244EA064444EA0500A7
:1018F800F8BD00BF0000024010B5002210211048BA
:10190800FFF7F6FE4B20FFF7BDFF0024032C05D898
:10191800A520FFF7B7FF0134E4B2F7E7002407E09A
:10192800A520FFF7AFFF074B234458700134E4B2FA
:10193800072CF5D9012210210148FFF7D9FE10BD67
:10194800000002409400002010B5094C002210212C
:101958002046FFF7CDFE0620FFF794FF0122102155
:101968002046FFF7C5FE0120FFF778FF10BD00BF36
:101978000000024010B50446002210211648FFF767
:10198800B7FE012C12D0022C1BD01520FFF77AFFCE
:10199800A520FFF777FF0446104B83F826000122A5
:1019A80010210D48FFF7A4FE204610BD0520FFF7C3
:1019B80069FFA520FFF766FF0446084B83F824005B
:1019C800EDE73520FFF75EFFA520FFF75BFF044634
:1019D800024B83F82500E2E7000002409400002053
:1019E80010B50120FFF73AFF002210210C48FFF73D
:1019F8007FFE0520FFF746FFA520FFF743FF094CB0
:101A080084F824000120FFF729FF94F8243013F00C
:101A1800010FF1D1012210210148FFF769FE10BD25
:101A2800000002409400002010B5444B012283F8C6
:101A3800272002E00120FFF711FFFFF709FF6328C5
:101A4800F8D9012210213E48FFF752FE6420FFF723
:101A580005FFFFF72DFFC0B211380F2869D8DFE85E
:101A680000F0625C56504A443E37306868686868DF
:101A78006808324B0A221A704FF48062DA612F4CE0
:101A88004FF4807363814FF480532361E3691A0133
:101A980062611B041A0AE2604FF48032A2619B0A59
:101AA8002362FFF729FF0120FFF764FF0220FFF7F9
:101AB80061FF0320FFF75EFF002384F82730012031
:101AC80010BD1E4B09221A704FF40072DA61D6E776
:101AD8001A4B08221A704FF48072DA61CFE7174B5D
:101AE80007221A708022DA61C9E7144B06221A709D
:101AF8004022DA61C3E7114B05221A702022DA610D
:101B0800BDE70E4B04221A701022DA61B7E70B4BBF
:101B180003221A700822DA61B1E7084B02221A7010
:101B28000422DA61ABE7054B01221A700222DA615E
:101B3800A5E70020014B83F82700C1E794000020A7
:101B48000000024070B5064602E00120FFF786FE5D
:101B58001D4B93F82730012BF7D01B4D012385F837
:101B68002730FFF73DFF2C6906FB04F4FFF7ECFE76
:101B7800002210211548FFF7BBFD2B78082B1FD931
:101B88002120FFF77FFE200EFFF77CFEC4F30740FD
:101B9800FFF778FEC4F30720FFF774FEE0B2FFF703
:101BA80071FE012210210948FFF7A2FDFFF718FF77
:101BB8000120FFF753FE044B002283F8272070BD55
:101BC8002020FFF75FFEE1E79400002000000240BC
:101BD800034A136900FB03F35089B3FBF0F0704725
:101BE800940000202DE9F0410746884615461E4618
:101BF80002E00120FFF732FE264C94F827C0BCF122
:101C0800010FF6D0012284F82720721963899A42BD
:101C180000D806B95E1B7219934200D25E1BFFF70B
:101C2800DFFEFFF791FE002210211B48FFF760FD41
:101C3800184B5A8908FB02551B78082B26D9122005
:101C4800FFF720FE280EFFF71DFEC5F30740FFF73C
:101C580019FEC5F30720FFF715FEE8B2FFF712FEDD
:101C68006423B2B239460D48FEF7ABFE01221021BB
:101C78000948FFF73DFDFFF7B3FE0120FFF7EEFD32
:101C8800044B002283F82720BDE8F0810220FFF7EB
:101C9800F9FDDAE794000020000002403800002037
:101CA800F8B5064608461446144A15699D4202D3FB
:101CB80013B92B4600E02B46A5421CD91A199542A8
:101CC8001AD22D1BFFF784FF0C4B5A89B4FBF2F391
:101CD800C71802FB13442B46224639463046FFF705
:101CE80081FF0137054B5B89E21A15441B1B1E4413
:101CF8000024A542EFDCF8BD1D46E3E79400002070
:101D08002DE9F0410746884615461E4602E00120A7
:101D1800FFF7A4FD254C94F827C0BCF1010FF6D0BD
:101D2800012284F827206489B44202D316B92646D2
:101D380000E0264673199C4200D2661B08FB045437
:101D4800002210211A48FFF7D3FC184B1B78082BE8
:101D580027D90C20FFF796FD200EFFF793FDC4F35B
:101D68000740FFF78FFDC4F30720FFF78BFDE0B2B4
:101D7800FFF788FD0020FFF785FD6423B2B23946DE
:101D88000C48FFF716F8012210210948FFF7B0FCAC
:101D98000120FFF763FD054B002283F82720BDE8EB
:101DA800F0810B20FFF76EFDD9E700BF94000020FB
:101DB8000000024038000020F8B5064608461446E0
:101DC800144A15699D4202D313B92B4600E02B46ED
:101DD800A5421CD91A1995421AD22D1BFFF7F8FEF5
:101DE8000C4B5A89B4FBF2F3C71802FB13442B4679
:101DF800224639463046FFF783FF0137054B5B899A
:101E0800E21A15441B1B1E440024A542EFDCF8BD52
:101E18001D46E3E794000020034AD2F8883043F4D3
:101E28007003C2F88830704700ED00E0DFF834D066
:101E38000D480E490E4A002302E0D458C45004331A
:101E4800C4188C42F9D30B4A0B4C002301E01360F1
:101E58000432A242FBD3FFF7DFFF00F011F8FEF7D0
:101E68008DFB7047000002200000002014000020B5
:101E7800181F000814000020BC000020FEE7000026
:101E880070B50D4D0D4C641BA4100026A64209D157
:101E98000B4D0C4C00F020F8641BA4100026A64241
:101EA80005D170BD55F8043B98470136EEE755F863
:101EB800043B98470136F2E7101F0008101F00087E
:101EC800101F0008141F000802440346934200D163
:101ED800704703F8011BF9E7F8B500BFF8BC08BC68
:101EE8009E467047F8B500BFF8BC08BC9E467047D0
:101EF80000000000000000000102030406070809B2
:081F080000E3FF7F010000006F
:041F1000BD01000807
:041F14009901000827
:101F18000102030405060708010000001000000084
:041F28000024F4009D
:0400000508001E359C
:00000001FF
